:020000040800F2
:1000000000500020F51E0008CD170008D317000887
:10001000D9170008DF170008E517000800000000E6
:10002000000000000000000000000000EB170008C6
:10003000F717000800000000031800080F18000858
:100040003D1F00083D1F00083D1F00083D1F000820
:100050003D1F00083D1F00083D1F00083D1F000810
:100060003D1F00083D1F00083D1F00083D1F000800
:100070003D1F00083D1F00083D1F00083D1F0008F0
:100080003D1F00083D1F00083D1F00083D1F0008E0
:100090003D1F00083D1F00083D1F00083D1F0008D0
:1000A0003D1F00083D1F00083D1F00083D1F0008C0
:1000B0001D1800083D1F00083D1F000831180008EA
:1000C000451800083D1F00083D1F00083D1F00089F
:1000D0003D1F00083D1F00083D1F00083D1F000890
:1000E000591800083D1F00083D1F000800000000CF
:1000F0000000000000000000000000000000000000
:0C01000000000000000000005FF808F1A3
:10010C0010B5054C237833B9044B13B10448AFF345
:10011C0000800123237010BDF800002000000000B7
:10012C006065000808B5034B1BB103490348AFF3E6
:10013C00008008BD00000000FC0000206065000885
:10014C0080B483B000AF78600E497A6813469B0088
:10015C001344DB000B441C331B68012B0BD10949E6
:10016C007A6813469B001344DB000B441C330022BB
:10017C001A60012300E0002318460C37BD4680BCF2
:10018C00704700BF0000002080B483B000AF7860DF
:10019C000E497A6813469B001344DB000B44203352
:1001AC001B68012B0BD109497A6813469B00134439
:1001BC00DB000B44203300221A60012300E00023F3
:1001CC0018460C37BD4680BC704700BF00000020AD
:1001DC0080B582B000AF00237B60F4E07E497A6882
:1001EC0013469B001344DB000B440C3319687A480C
:1001FC007A6813469B001344DB00034410331960E8
:10020C0075497A6813469B001344DB000B44083392
:10021C00196871487A6813469B001344DB00034449
:10022C000C3319606C497A6813469B001344DB004D
:10023C000B44186868497A6813469B001344DB002A
:10024C000B4404331B88194602F012FA0346184675
:10025C0061497A6813469B001344DB000B44083356
:10026C0018605D497A6813469B001344DB000B440D
:10027C000C33196858487A6813469B001344DB000A
:10028C00034408331B68994240F09A8052497A68BB
:10029C0013469B001344DB000B440C3319684E4887
:1002AC007A6813469B001344DB00034410331B682D
:1002BC00994240F0858048497A6813469B00134464
:1002CC00DB000B441033196843487A6813469B00D3
:1002DC001344DB00034414331B68994232D03E496B
:1002EC007A6813469B001344DB000B4410331968E7
:1002FC0039487A6813469B001344DB0003441433DB
:10030C00196035497A6813469B001344DB000B4493
:10031C0014331B68002B53D12F497A6813469B006A
:10032C001344DB000B4418334FF4FA721A602A4959
:10033C007A6813469B001344DB000B441C330122E8
:10034C001A603DE024497A6813469B001344DB0095
:10035C000B4418331B68591E1F487A6813469B00C0
:10036C001344DB000344183319601B497A681346A5
:10037C009B001344DB000B4418331B68002B1FD16C
:10038C0015497A6813469B001344DB000B44183361
:10039C004FF4FA721A6010497A6813469B001344A2
:1003AC00DB000B4414331B68002B09D10A497A6813
:1003BC0013469B001344DB000B44203301221A60CC
:1003CC007B6801337B607B68022B7FF707AF00BF34
:1003DC0000BF0837BD4680BD0000002080B500AFCF
:1003EC00A44B1B68013B042B00F2268201A252F89D
:1003FC0023F000BF15040008D9040008B10500085B
:10040C00A10600087707000801F064FA9A4B1B68F4
:10041C0001334FF47A7202FB03F31946002001F00A
:10042C0087F86421092001F083F84FF47A710120D8
:10043C0001F07EF84FF47A71082001F079F88D4BB9
:10044C0002221A600020FFF77BFE0346002B05D129
:10045C000020FFF799FE0346002B0ED04FF40071DD
:10046C00864802F034F9834B16221A6001F092FC94
:10047C004FF4FA71032001F05BF80120FFF760FEE6
:10048C000346002B05D10120FFF77EFE0346002B0F
:10049C0009D04FF40071794802F019F901F07AFC97
:1004AC00744B20221A600220FFF74AFE0346002BF1
:1004BC0006D10220FFF768FE0346002B00F0BE8138
:1004CC004FF400716D4802F002F9B7E101F032FA15
:1004DC006B4B5B68012B21D16A4B1B68664A13601E
:1004EC00694B1A68674B1B68D31A013B674A136048
:1004FC00654B1A68634B1B68D31A013B644A136043
:10050C00624B1B6801334FF47A7202FB03F31946FA
:10051C00002001F00DF8574B03221A600020FFF762
:10052C000FFE0346002B05D10020FFF72DFE0346DE
:10053C00002B0ED04FF40071504802F0C8F84D4B10
:10054C0016221A6001F026FC4FF4FA71032000F019
:10055C00EFFF0120FFF7F4FD0346002B05D101202E
:10056C00FFF712FE0346002B09D04FF400714348ED
:10057C0002F0ADF801F00EFC3E4B20221A60022076
:10058C00FFF7DEFD0346002B06D10220FFF7FCFD32
:10059C000346002B00F054814FF40071374802F0F1
:1005AC0096F84DE101F01CFA354B5B68012B1DD11F
:1005BC00354B1B68364A1360334B1A68314B1B683A
:1005CC00D31A013B314A13602E4B1B682A4A136025
:1005DC00294B1B6801334FF47A7202FB03F3194663
:1005EC00002000F0A5FF234B04221A600020FFF727
:1005FC00A7FD0346002B05D10020FFF7C5FD0346E0
:10060C00002B0ED04FF400711C4802F060F8194B0F
:10061C0016221A6001F0BEFB4FF4FA71032000F0B1
:10062C0087FF0120FFF78CFD0346002B05D101202D
:10063C00FFF7AAFD0346002B09D04FF400710F48B9
:10064C0002F045F801F0A6FB0A4B20221A600220AA
:10065C00FFF776FD0346002B06D10220FFF794FD31
:10066C000346002B00F0EE804FF40071034802F0BB
:10067C002EF8E7E038010020900500200010014022
:10068C0040050020800000208400002098050020F8
:10069C009405002001F0FAF96E4B5B68012B21D117
:1006AC006D4B1A686D4B1B68D31A013B6C4A136077
:1006BC00694B1A68694B1B68D31A013B694A136072
:1006CC00664B1B68684A1360654B1B6801334FF41B
:1006DC007A7202FB03F31946002000F029FF634BEA
:1006EC0005221A600020FFF72BFD0346002B05D1D5
:1006FC000020FFF749FD0346002B0ED04FF400718C
:10070C005B4801F0E4FF594B16221A6001F042FBE2
:10071C004FF4FA71032000F00BFF0120FFF710FDDE
:10072C000346002B05D10120FFF72EFD0346002BBD
:10073C0009D04FF400714E4801F0C9FF01F02AFBBB
:10074C004A4B20221A600220FFF7FAFC0346002BCA
:10075C0005D10220FFF718FD0346002B74D04FF48F
:10076C000071434801F0B3FF6EE001F0E5F9394B3D
:10077C005B68012B1DD1394B1B683B4A1360364B10
:10078C001A68364B1B68D31A013B354A1360324B3F
:10079C001B68344A1360344B1B6801334FF47A7274
:1007AC0002FB03F31946002000F0C2FE2F4B02227D
:1007BC001A600020FFF7C4FC0346002B05D1002073
:1007CC00FFF7E2FC0346002B0ED04FF400712848D3
:1007DC0001F07DFF254B16221A6001F0DBFA4FF475
:1007EC00FA71032000F0A4FE0120FFF7A9FC0346D8
:1007FC00002B05D10120FFF7C7FC0346002B09D0C5
:10080C004FF400711A4801F062FF01F0C3FA174B64
:10081C0020221A600220FFF793FC0346002B05D11F
:10082C000220FFF7B1FC0346002B0FD04FF40071F0
:10083C000F4801F04CFF09E000BF08E000BF06E0E4
:10084C0000BF04E000BF02E000BF00E000BF00BF3B
:10085C0080BD00BF400500208400002080000020E7
:10086C0098050020940500209005002038010020F8
:10087C000010014080B500AF414B1B68202B02D00B
:10088C00212B3CD07AE001F0BBFA0020FFF758FC9A
:10089C000346002B05D10020FFF776FC0346002B06
:1008AC0004D04FF40071374801F011FF0120FFF71D
:1008BC0047FC0346002B05D10120FFF765FC0346DE
:1008CC00002B07D04FF400712E4801F000FF2C4B89
:1008DC0021221A600220FFF733FC0346002B05D1BE
:1008EC000220FFF751FC0346002B44D04FF400715B
:1008FC00244801F0ECFE224B01221A603BE001F08F
:10090C00B9FA0020FFF71CFC0346002B05D1002090
:10091C00FFF73AFC0346002B04D04FF40071194842
:10092C0001F0D5FE0120FFF70BFC0346002B05D18F
:10093C000120FFF729FC0346002B07D04FF4007170
:10094C00104801F0C4FE0E4B20221A600220FFF763
:10095C00F7FB0346002B05D10220FFF715FC0346DD
:10096C00002B0AD04FF40071064801F0B0FE044B86
:10097C0001221A6001E000BF00E000BF00BF80BD93
:10098C00380100200010014080B500AF8B4B1B6874
:10099C00182B00F0B780182B00F30681162B02D011
:1009AC00172B58D000E101F01DF90020FFF7C8FB10
:1009BC000346002B05D10020FFF7E6FB0346002B76
:1009CC000FD04FF400717E4801F081FE7B4B172253
:1009DC001A604FF4FA71032000F0AAFD794B002243
:1009EC001A600120FFF7ACFB0346002B05D1012058
:1009FC00FFF7CAFB0346002B10D04FF40071704870
:100A0C0001F065FE6F4B1B6801336E4A13606D4B32
:100A1C001B68632B02DD6B4B00221A600220FFF770
:100A2C008FFB0346002B06D10220FFF7ADFB0346DC
:100A3C00002B00F0BB804FF40071614801F047FEC1
:100A4C00604B1B68604A13605E4B00221A605B4B64
:100A5C0017221A60AAE001F00DF90020FFF770FBD5
:100A6C000346002B05D10020FFF78EFB0346002B1D
:100A7C000FD04FF40071524801F029FE4F4B182251
:100A8C001A604FF4FA71032000F052FD4D4B002216
:100A9C001A600120FFF754FB0346002B05D10120FF
:100AAC00FFF772FB0346002B10D04FF40071444843
:100ABC0001F00DFE434B1B680133424A1360414B5E
:100ACC001B68632B02DD3F4B00221A600220FFF7EC
:100ADC0037FB0346002B05D10220FFF755FB0346DD
:100AEC00002B65D04FF40071354801F0F0FD354B0B
:100AFC001B68364A1360334B00221A602F4B1822A6
:100B0C001A6055E001F0FEF80020FFF719FB0346D0
:100B1C00002B05D10020FFF737FB0346002B0AD032
:100B2C004FF40071264801F0D2FD244B01221A60CB
:100B3C00244B00221A600120FFF702FB0346002B16
:100B4C0005D10120FFF720FB0346002B10D04FF4FA
:100B5C0000711B4801F0BBFD1A4B1B680133194A8D
:100B6C001360184B1B68632B02DD164B00221A60B6
:100B7C000220FFF7E5FA0346002B05D10220FFF710
:100B8C0003FB0346002B15D04FF400710C4801F009
:100B9C009EFD0C4B1B680E4A13600A4B00221A6018
:100BAC00064B01221A6005E000BF04E000BF02E022
:100BBC0000BF00E000BF00BF80BD00BF38010020B7
:100BCC00001001402C010020840000208000002037
:100BDC008800002080B582B000AF786039607B68F7
:100BEC000E4A10210E4805F067F80021002000F095
:100BFC00BCF80B4800F0A4F83B68084A10210848E0
:100C0C0005F05AF80021012000F0AFF8044800F07C
:100C1C0097F800BF0837BD4680BD00BF7865000857
:100C2C001401002080B586B002AF0346FB71FB793E
:100C3C0023F00F03FB73FB791B01BB73FB7B43F0AE
:100C4C000C03DBB23B72FB7B43F00803DBB27B7221
:100C5C00BB7B43F00C03DBB2BB72BB7B43F00803E2
:100C6C00DBB2FB7207F108026423009304234221D8
:100C7C00034801F0BFFE00BF1037BD4680BD00BF6A
:100C8C003C01002080B586B002AF0346FB71FB79B6
:100C9C0023F00F03FB73FB791B01BB73FB7B43F04E
:100CAC000D03DBB23B72FB7B43F00903DBB27B72BF
:100CBC00BB7B43F00D03DBB2BB72BB7B43F0090380
:100CCC00DBB2FB7207F10802642300930423422178
:100CDC00034801F08FFE00BF1037BD4680BD00BF3A
:100CEC003C01002080B500AF3320FFF79BFF322082
:100CFC00FFF798FF322001F07FF92820FFF792FFD1
:100D0C00322001F079F90120FFF78CFF322001F03D
:100D1C0073F90620FFF786FF322001F06DF90C20E5
:100D2C00FFF780FF322001F067F90220FFF77AFF0E
:100D3C00322001F061F98020FFF774FF00BF80BD05
:100D4C0080B582B000AF786006E07B685A1C7A6090
:100D5C001B781846FFF796FF7B681B78002BF4D1A5
:100D6C0000BF00BF0837BD4680BD80B584B000AF62
:100D7C00786039607B68012B08D17B68DAB23B68FC
:100D8C00DBB21344DBB27F33FB7308E03B68DBB2AE
:100D9C004033DBB25BB263F07F035BB2FB73FB7B74
:100DAC001846FFF73FFF00BF1037BD4680BD00005F
:100DBC0080B500AF01F0BEF800F036F800F018F97D
:100DCC0000F0ECF800F070F800F09CF8104804F01B
:100DDC00C1FA104B01221A60FFF784FF00F0C1F931
:100DEC00012200210C4800F0D1F9012200210B480E
:100DFC0000F0CCF901220021094800F0C7F90122CA
:100E0C000021084800F0C2F900F076FAFCE700BFB8
:100E1C009001002038010020DD010008E9030008E2
:100E2C00950900088108000880B590B000AF07F163
:100E3C00180328220021184604F036FF3B1D00221F
:100E4C001A605A609A60DA601A610223BB6101234E
:100E5C00BB621023FB6202237B630023BB63002372
:100E6C00FB6307F11803184603F016FE0346002B2C
:100E7C0001D000F071F90F237B600223BB600023CB
:100E8C00FB604FF480633B6100237B613B1D0021C1
:100E9C00184604F081F80346002B01D000F05CF9F1
:100EAC0000BF4037BD4680BD80B500AF124B134A22
:100EBC001A60114B124A5A600F4B00229A600E4B6B
:100ECC000022DA600C4B4FF480421A610A4B00226C
:100EDC005A61094B00229A61074B0022DA61064BDA
:100EEC0000221A62044801F02DFC0346002B01D0AD
:100EFC0000F032F900BF80BD3C01002000540040DE
:100F0C00A086010080B586B000AF07F1080300226F
:100F1C001A605A609A60DA603B4600221A605A6086
:100F2C001D4B4FF080421A601B4B41F63F725A60CA
:100F3C00194B00229A60184B0922DA60164B0022DA
:100F4C001A61154B00229A61134804F0B3F9034659
:100F5C00002B01D000F000F94FF48053BB6007F177
:100F6C00080319460C4804F037FB0346002B01D04C
:100F7C0000F0F2F800233B6000237B603B461946EF
:100F8C00054804F019FD0346002B01D000F0E4F8ED
:100F9C0000BF1837BD4680BD9001002080B500AF62
:100FAC00114B124A1A60104B4FF4E1325A600E4B3F
:100FBC0000229A600C4B0022DA600B4B00221A6163
:100FCC00094B0C225A61084B00229A61064B0022F5
:100FDC00DA61054804F060FD0346002B01D000F0F7
:100FEC00BBF800BF80BD00BFD8010020004400400A
:100FFC0080B588B000AF07F1100300221A605A6068
:10100C009A60DA60494B9B69484A43F0100393613C
:10101C00464B9B6903F01003FB60FB68434B9B69D9
:10102C00424A43F020039361404B9B6903F0200339
:10103C00BB60BB683D4B9B693C4A43F00403936126
:10104C003A4B9B6903F004037B607B68374B9B69CD
:10105C00364A43F008039361344B9B6903F0080351
:10106C003B603B6800224FF44871314801F017FB9C
:10107C0000224FF48F612F4801F011FB00224FF436
:10108C0020712D4801F00BFB4FF400533B612B4BAF
:10109C007B610023BB6107F110031946264801F060
:1010AC0063F913233B6100237B610123BB6107F1CF
:1010BC00100319461E4801F057F94FF448733B6171
:1010CC0001237B610023BB610223FB6107F1100349
:1010DC001946174801F048F94FF48F633B6101231F
:1010EC007B610023BB610223FB6107F110031946EE
:1010FC00104801F039F94FF420733B6101237B61F7
:10110C000023BB610223FB6107F1100319460A4857
:10111C0001F02AF900220021282001F068F828208B
:10112C0001F081F800BF2037BD4680BD00100240A1
:10113C0000080140000C014000100140000011109B
:10114C0080B582B000AF786000F016FA00F074F849
:10115C0000BF0837BD4680BD80B400AF72B600BF7B
:10116C00FEE780B582B000AF0023FB7106E0FB798F
:10117C00184600F011F9FB790133FB71FB79272B31
:10118C00F5D900BF00BF0837BD4680BD80B485B01F
:10119C0000AFF860B9607A60254B1B78272B42D8DA
:1011AC00234B1B781946234A0B469B000B449B0090
:1011BC001344FA681A601E4B1B7819461D4A0B46DD
:1011CC009B000B449B0013440433BA681A60184B01
:1011DC001B781946174A0B469B000B449B00134483
:1011EC0008337A681A60124B1B781946114A0B4661
:1011FC009B000B449B0013440C3300221A700C4BC5
:10120C001A780B4B1B78194610460A4A0B469B0062
:10121C000B449B00134410331860054B1B780133AF
:10122C00DAB2034B1A7000BF1437BD4680BC70474E
:10123C00240100202002002080B483B000AF0023E2
:10124C007B6048E02A497A6813469B0013449B0054
:10125C000B4404331B68002B13D025497A681346C2
:10126C009B0013449B000B4404331B68591E2048FD
:10127C007A6813469B0013449B00034404331960A3
:10128C0026E01B497A6813469B0013449B000B44D1
:10129C000833196816487A6813469B0013449B0060
:1012AC0003440433196012497A6813469B001344B3
:1012BC009B000B440C331B780133D8B20C497A6871
:1012CC0013469B0013449B000B440C3302461A70CC
:1012DC007B6801337B60074B1B781A467B68934213
:1012EC00B0DB00BF00BF0C37BD4680BC704700BFF1
:1012FC00200200202401002080B582B000AF002322
:10130C007B603AE022497A6813469B0013449B00A9
:10131C000B440C331B78002B2CD01D497A681346D8
:10132C009B0013449B000B440C331B78013BD8B23D
:10133C0017497A6813469B0013449B000B440C33EB
:10134C0002461A7012497A6813469B0013449B009C
:10135C000B441B6898470E497A6813469B0013444C
:10136C009B000B4408331B68002B03D17B68184689
:10137C0000F012F87B6801337B60064B1B781A4631
:10138C007B689342BEDB00BF00BF0837BD4680BD03
:10139C00200200202401002080B485B000AF7860CA
:1013AC00614B1B78002B01D1FF23B8E05E4B1B78FF
:1013BC00013B1A467B68934201D9FF23AFE05A4B9D
:1013CC001B78012B69D97B68FB6060E0FB685A1CB9
:1013DC00564913469B0013449B000B441968534811
:1013EC00FA6813469B0013449B0003441960FB6886
:1013FC005A1C4E4913469B0013449B000B44043368
:10140C0019684A48FA6813469B0013449B0003442E
:10141C0004331960FB685A1C444913469B0013445F
:10142C009B000B44083319684048FA6813469B002C
:10143C0013449B00034408331960FB685A1C3B4956
:10144C0013469B0013449B000B440C33187837490C
:10145C00FA6813469B0013449B000B440C33024662
:10146C001A70FB685A1C314913469B0013449B00AD
:10147C000B44103319682D48FA6813469B0013442B
:10148C009B00034410331960FB680133FB60264B4F
:10149C001B78013BFA689A4298DB234B1B785A1E47
:1014AC00224913469B0013449B000B4400221A60F4
:1014BC001D4B1B785A1E1D4913469B0013449B0061
:1014CC000B44043300221A60174B1B785A1E174921
:1014DC0013469B0013449B000B44083300221A60F4
:1014EC00114B1B785A1E114913469B0013449B0049
:1014FC000B440C3300221A700B4B1B785A1E0B49F1
:10150C0013469B0013449B000B44103300221A60BB
:10151C00054B1B78013BDAB2034B1A7001231846BA
:10152C001437BD4680BC70472401002020020020E7
:10153C0080B483B000AF786039607B68002B11DB1E
:10154C007B68092B0EDC0A4B1B683A6892FBF3F2A2
:10155C0008497B6841F83320064A7B68DB0013445A
:10156C0000225A6000BF0C37BD4680BC704700BFDC
:10157C00780000204005002080B483B000AF002329
:10158C007B601DE0134A7B6852F83330002B14DD6E
:10159C00104A7B6852F833305A1E0E497B6841F86A
:1015AC0033200C4A7B6852F83330002B05DC094A97
:1015BC007B68DB00134401225A607B6801337B603B
:1015CC007B68092BDEDD00BF00BF0C37BD4680BC3D
:1015DC00704700BF4005002080B485B000AF154BAC
:1015EC009B69144A43F001039361124B9B6903F00E
:1015FC000103BB60BB680F4BDB690E4A43F08053A1
:10160C00D3610C4BDB6903F080537B607B680A4B26
:10161C005B68FB60FB6823F0E063FB60FB6843F0F6
:10162C000073FB60044AFB68536000BF1437BD466F
:10163C0080BC7047001002400000014080B58AB0A9
:10164C0000AF786007F1140300221A605A609A60A8
:10165C00DA607B681B68254A934242D1244B9B6914
:10166C00234A43F008039361214B9B6903F0080361
:10167C003B613B694FF440737B611223BB610323D5
:10168C003B6207F1140319461A4800F06DFE1A4B21
:10169C005B687B627B6A43F0E0637B627B6A43F04E
:1016AC0002037B62144A7B6A5360114BDB69104A5C
:1016BC0043F40013D3610E4BDB6903F40013FB609E
:1016CC00FB68002200211F2000F091FD1F2000F07C
:1016DC00AAFD00220021202000F089FD202000F02E
:1016EC00A2FD00BF2837BD4680BD00BF005400409E
:1016FC0000100240000C01400000014080B584B095
:10170C0000AF78607B681B68B3F1804F13D10C4B32
:10171C00DB690B4A43F00103D361094BDB6903F02E
:10172C000103FB60FB68002200211C2000F05FFD20
:10173C001C2000F078FD00BF1037BD4680BD00BFF7
:10174C000010024080B588B000AF786007F110033C
:10175C0000221A605A609A60DA607B681B68154A2E
:10176C00934223D1144BDB69134A43F40033D36106
:10177C00114BDB6903F40033FB60FB680E4B9B6978
:10178C000D4A43F0040393610B4B9B6903F0040374
:10179C00BB60BB680C233B6102237B610223FB61B2
:1017AC0007F110031946054800F0DEFD00BF203795
:1017BC00BD4680BD004400400010024000080140BE
:1017CC0080B400AFFEE780B400AFFEE780B400AF9A
:1017DC00FEE780B400AFFEE780B400AFFEE780B454
:1017EC0000AF00BFBD4680BC704780B400AF00BFE7
:1017FC00BD4680BC704780B400AF00BFBD4680BC06
:10180C00704780B500AF00F0DBFB00BF80BD00006F
:10181C0080B500AF024803F0EFFD00BF80BD00BFF4
:10182C009001002080B500AF024801F0E1F900BF43
:10183C0080BD00BF3C01002080B500AF024801F024
:10184C0048FB00BF80BD00BF3C01002080B500AF4D
:10185C004FF4005000F054FF00BF80BD80B586B03F
:10186C0000AF7860144A154BD31A7B617B693B61DE
:10187C00134B1B68002B02D1114B124A1A60104BF0
:10188C001A687B6813443A699A4207D204F0E2F969
:10189C0003460C221A604FF0FF3309E0084B1B681B
:1018AC00FB60074B1A687B681344054A1360FB689E
:1018BC0018461837BD4680BD0050002000040000BB
:1018CC0028010020B005002080B400AF00BFBD4649
:1018DC0080BC704780B400AF114B1A68114B1B6869
:1018EC009A4210DA0F4B1B680F4A13600C4B1B68A3
:1018FC000E4A13600B4B1A68094B1B68D31A013B39
:10190C000B4A136008E0084B05221A60074B0322B0
:10191C001A60074B02221A6000BFBD4680BC70479C
:10192C0080000020840000209405002090050020F9
:10193C009805002080B500AF00222021224800F03D
:10194C00AEFE01220821204800F0A9FE00224FF42F
:10195C0000711E4800F0A3FE01224FF480711B4859
:10196C0000F09DFE01224FF48061174800F097FEB5
:10197C0001221021144800F092FE0122402112484D
:10198C0000F08DFE01228021114800F088FE114BE1
:10199C001B68114A126811461846FFF71BF90F4BCA
:1019AC00DB68012B0ED10B4B1B68013B094A136002
:1019BC00094B1B68013B084A13604FF47A710120F4
:1019CC00FFF7B6FD00BF80BD000C014000080140D0
:1019DC0000100140900500209405002040050020D7
:1019EC0080B500AF01222021224800F058FE0022D1
:1019FC000821204800F053FE01224FF400711E48CC
:101A0C0000F04DFE00224FF480711B4800F047FEA1
:101A1C0001224FF48061174800F041FE0122102191
:101A2C00144800F03CFE01224021124800F037FE21
:101A3C0001228021114800F032FE114B1B68114A23
:101A4C00126811461846FFF7C5F80F4BDB68012BDF
:101A5C000ED10B4B1B68013B094A1360094B1B68E9
:101A6C00013B084A13604FF47A710120FFF760FDC7
:101A7C0000BF80BD000C0140000801400010014077
:101A8C0098050020940500204005002080B500AF8B
:101A9C0001222021224800F002FE012208212048C8
:101AAC0000F0FDFD01224FF400711E4800F0F7FD1F
:101ABC0001224FF480711B4800F0F1FD00224FF41D
:101ACC008061174800F0EBFD01221021144800F052
:101ADC00E6FD00224021124800F0E1FD01228021A8
:101AEC00114800F0DCFD114B1B68114A12681146BD
:101AFC001846FFF76FF80F4BDB68012B0ED10B4B21
:101B0C001B68013B094A1360094B1B68013B084ADF
:101B1C0013604FF47A710120FFF70AFD00BF80BDFE
:101B2C00000C014000080140001001409405002009
:101B3C00900500204005002080B500AF0122202137
:101B4C00224800F0ACFD01220821204800F0A7FD3E
:101B5C0001224FF400711E4800F0A1FD01224FF448
:101B6C0080711B4800F09BFD01224FF480611748E7
:101B7C0000F095FD00221021144800F090FD012288
:101B8C004021124800F08BFD00228021114800F00A
:101B9C0086FD114B1B68114A126811461846FFF757
:101BAC0019F80F4BDB68012B0ED10B4B1B68013B5B
:101BBC00094A1360094B1B68013B084A13604FF438
:101BCC007A710120FFF7B4FC00BF80BD000C01400E
:101BDC0000080140001001409405002098050020E9
:101BEC004005002080B500AF1D4BDB69012B2FD1C8
:101BFC00012220211B4800F052FD01220821194826
:101C0C0000F04DFD01224FF48061164800F047FDB5
:101C1C0001221021134800F042FD01224FF4007103
:101C2C00114800F03CFD01224FF480710E4800F089
:101C3C0036FD012240210B4800F031FD01228021AC
:101C4C000A4800F02CFD4FF4FA710320FFF770FCEA
:101C5C00074B1B6819460220FEF7BCFF00BF80BD76
:101C6C0040050020000C014000080140001001401C
:101C7C002C01002080B500AF1D4BDB69012B2FD14F
:101C8C00002220211B4800F00AFD012208211948DE
:101C9C0000F005FD00224FF48061164800F0FFFCB7
:101CAC0001221021134800F0FAFC00224FF40071BD
:101CBC00114800F0F4FC01224FF480710E4800F042
:101CCC00EEFC002240210B4800F0E9FC01228021AF
:101CDC000A4800F0E4FC4FF4FA710320FFF728FCEB
:101CEC00074B1B6819460320FEF774FF00BF80BD2D
:101CFC0040050020000C014000080140001001408C
:101D0C002C01002080B500AF1D4BDB69012B2FD1BE
:101D1C00012220211B4800F0C2FC00220821194896
:101D2C0000F0BDFC01224FF48061164800F0B7FCB6
:101D3C0000221021134800F0B2FC01224FF4007174
:101D4C00114800F0ACFC00224FF480710E4800F0FA
:101D5C00A6FC012240210B4800F0A1FC00228021AE
:101D6C000A4800F09CFC4FF4FA710320FFF7E0FBEB
:101D7C00074B1B6819460420FEF72CFF00BF80BDE3
:101D8C0040050020000C01400008014000100140FB
:101D9C002C01002080B500AF00222021154800F056
:101DAC007EFC00220821134800F079FC00224FF43D
:101DBC008061104800F073FC002210210D4800F0E7
:101DCC006EFC00224FF400710B4800F068FC0022FE
:101DDC004FF48071084800F062FC00224021054855
:101DEC0000F05DFC00228021044800F058FC00BF8C
:101DFC0080BD00BF000C01400008014000100140F4
:101E0C0080B500AF00222021174800F048FC0122C9
:101E1C000821154800F043FC00224FF400711348D0
:101E2C0000F03DFC01224FF48071104800F037FCAB
:101E3C0001224FF480610C4800F031FC012210218A
:101E4C00094800F02CFC01224021074800F027FC37
:101E5C0001228021064800F022FC00210120FEF71F
:101E6C00B9FE00BF80BD00BF000C0140000801405E
:101E7C000010014080B500AF01222021174800F06E
:101E8C000EFC01220821154800F009FC01224FF438
:101E9C000071134800F003FC01224FF480711048CC
:101EAC0000F0FDFB00224FF480610C4800F0F7FBC2
:101EBC0001221021094800F0F2FB002240210748C2
:101ECC0000F0EDFB01228021064800F0E8FB002128
:101EDC000120FEF77FFE00BF80BD00BF000C01405B
:101EEC000008014000100140FFF7EEFC0B480C49C4
:101EFC000C4A002302E0D458C4500433C4188C425A
:101F0C00F9D3094A094C002301E013600432A242C0
:101F1C00FBD303F0A5FEFEF74BFF7047000000203B
:101F2C00F8000020E8650008F8000020B00500204B
:101F3C00FEE7000080B500AF084B1B68074A43F072
:101F4C0010031360032000F047F9002000F008F89C
:101F5C00FFF742FB0023184680BD00BF0020024063
:101F6C0080B582B000AF7860124B1A68124B1B78A8
:101F7C0019464FF47A73B3FBF1F3B2FBF3F3184643
:101F8C0000F05FF90346002B01D001230EE07B68C3
:101F9C000F2B0AD8002279684FF0FF3000F027F998
:101FAC00064A7B681360002300E0012318460837BB
:101FBC00BD4680BD7C000020900000208C000020DD
:101FCC0080B400AF054B1B781A46054B1B681344B5
:101FDC00034A136000BFBD4680BC704790000020D0
:101FEC009C05002080B400AF024B1B681846BD4610
:101FFC0080BC70479C05002080B584B000AF786031
:10200C00FFF7F0FFB8607B68FB60FB68B3F1FF3F44
:10201C0005D00A4B1B781A46FB681344FB6000BFC3
:10202C00FFF7E0FF0246BB68D31AFA689A42F7D86A
:10203C0000BF00BF1037BD4680BD00BF9000002020
:10204C0080B485B000AF78607B6803F00703FB6059
:10205C000C4BDB68BB60BA684FF6FF031340BB60E8
:10206C00FB681A02BB68134343F0BF6343F40033AD
:10207C00BB60044ABB68D36000BF1437BD4680BC4C
:10208C00704700BF00ED00E080B400AF044BDB688C
:10209C001B0A03F007031846BD4680BC704700BFFF
:1020AC0000ED00E080B483B000AF0346FB7197F9FC
:1020BC000730002B0BDBFB7903F01F02064997F965
:1020CC0007305B09012000FA02F241F8232000BF1F
:1020DC000C37BD4680BC704700E100E080B483B093
:1020EC0000AF03463960FB7197F90730002B0ADB10
:1020FC003B68DAB20C4997F907301201D2B20B44A3
:10210C0083F800230AE03B68DAB20849FB7903F054
:10211C000F03043B1201D2B20B441A7600BF0C37EA
:10212C00BD4680BC704700BF00E100E000ED00E060
:10213C0080B489B000AFF860B9607A60FB6803F0D6
:10214C000703FB61FB69C3F10703042B28BF0423BE
:10215C00BB61FB690433062B02D9FB69033B00E02E
:10216C0000237B614FF0FF32BB6902FA03F3DA43C1
:10217C00BB681A407B699A404FF0FF317B6901FACA
:10218C0003F3D9437B680B40134318462437BD46F1
:10219C0080BC704780B582B000AF78607B68013B33
:1021AC00B3F1807F01D301230FE00A4A7B68013B26
:1021BC0053600F214FF0FF30FFF790FF054B0022CB
:1021CC009A60044B07221A60002318460837BD4654
:1021DC0080BD00BF10E000E080B582B000AF786039
:1021EC007868FFF72DFF00BF0837BD4680BD80B56E
:1021FC0086B000AF0346B9607A60FB7300237B6145
:10220C00FFF742FF78617A68B9687869FFF790FF49
:10221C00024697F90F3011461846FFF75FFF00BFD3
:10222C001837BD4680BD80B582B000AF0346FB7148
:10223C0097F907301846FFF735FF00BF0837BD4642
:10224C0080BD80B582B000AF78607868FFF7A2FFE0
:10225C00034618460837BD4680BD000080B584B0E3
:10226C0000AF78600023FB737B6893F82130DBB2FE
:10227C00022B05D07B6804229A630123FB7351E087
:10228C007B681B681A687B681B6822F00E021A6058
:10229C007B681B681A687B681B6822F001021A6055
:1022AC007B681B68224A934229D07B681B68214AB1
:1022BC00934222D07B681B681F4A93421AD07B68DA
:1022CC001B681E4A934212D07B681B681C4A9342BF
:1022DC000AD07B681B681B4A934202D14FF48013CF
:1022EC000EE04FF080730BE04FF4803308E04FF4B6
:1022FC00805305E04FF4807302E0102300E00123CB
:10230C00114A53607B68012283F821207B680022EC
:10231C0083F820207B685B6B002B03D07B685B6BA6
:10232C0078689847FB7B18461037BD4680BD00BFC8
:10233C00080002401C0002403000024044000240F1
:10234C00580002406C0002400000024080B483B090
:10235C0000AF78607B6893F82130DBB218460C37FD
:10236C00BD4680BC7047000080B48BB000AF786075
:10237C00396000237B6200233B6269E101227B6AA6
:10238C0002FA03F3FB613B681B68FA691340BB61FB
:10239C00BA69FB699A4240F058813B685B689A4A7B
:1023AC0093425ED0984A934275D8984A934258D03B
:1023BC00964A93426FD8964A934252D0944A93428B
:1023CC0069D8944A93424CD0924A934263D8924A29
:1023DC00934246D0904A93425DD8122B2AD8122BA6
:1023EC0059D801A252F823F06F24000849240008A0
:1023FC005B2400089D240008A3240008A3240008E3
:10240C00A3240008A3240008A3240008A324000884
:10241C00A3240008A3240008A3240008A324000874
:10242C00A3240008A3240008A324000851240008B6
:10243C0065240008794A934213D02CE03B68DB6892
:10244C003B6229E03B68DB6804333B6224E03B6879
:10245C00DB6808333B621FE03B68DB680C333B6294
:10246C001AE03B689B68002B02D104233B6213E00B
:10247C003B689B68012B05D108233B627B68FA699A
:10248C001A6109E008233B627B68FA695A6103E030
:10249C0000233B6200E000BFBB69FF2B01D87B68C7
:1024AC0001E07B6804337B61BB69FF2B02D87B6A3C
:1024BC009B0002E07B6A083B9B003B617B691A68CE
:1024CC000F213B6901FA03F3DB431A40396A3B697C
:1024DC0001FA03F31A437B691A603B685B6803F0EB
:1024EC008053002B00F0B1804D4B9B694C4A43F05C
:1024FC00010393614A4B9B6903F00103BB60BB680A
:10250C00484A7B6A9B08023352F82330FB607B6A93
:10251C0003F003039B000F2202FA03F3DB43FA6878
:10252C001340FB607B68404A934213D07B683F4A60
:10253C0093420DD07B683E4A934207D07B683D4A5C
:10254C00934201D1032306E0042304E0022302E0BA
:10255C00012300E000237A6A02F003029200934008
:10256C00FA681343FB602F497B6A9B080233FA68B5
:10257C0041F823203B685B6803F48013002B06D0E2
:10258C002D4B9A682C49BB6913438B6006E02A4B90
:10259C009A68BB69DB43284913408B603B685B68D6
:1025AC0003F40013002B06D0234BDA682249BB69D5
:1025BC001343CB6006E0204BDA68BB69DB431E4952
:1025CC001340CB603B685B6803F40033002B06D0F0
:1025DC00194B5A681849BB6913434B6006E0164BFC
:1025EC005A68BB69DB43144913404B603B685B681A
:1025FC0003F48033002B21D00F4B1A680E49BB69B2
:10260C0013430B6021E000BF0000321000003110BA
:10261C000000221000002110000012100000111008
:10262C00001002400000014000080140000C014075
:10263C000010014000140140000401400B4B1A68CB
:10264C00BB69DB43094913400B607B6A01337B6236
:10265C003B681A687B6A22FA03F3002B7FF48EAE78
:10266C0000BF00BF2C37BD4680BC70470004014042
:10267C0080B485B000AF78600B467B807B689A682D
:10268C007B881340002B02D00123FB7301E0002355
:10269C00FB73FB7B18461437BD4680BC704780B477
:1026AC0083B000AF78600B467B8013467B707B78E1
:1026BC00002B03D07A887B681A6103E07B881A04AC
:1026CC007B681A6100BF0C37BD4680BC704780B474
:1026DC0085B000AF78600B467B807B68DB68FB6065
:1026EC007A88FB6813401A04FB68D9437B880B403B
:1026FC001A437B681A6100BF1437BD4680BC704713
:10270C0080B582B000AF0346FB80084B5A69FB884A
:10271C001340002B06D0054AFB885361FB881846F2
:10272C0000F006F800BF0837BD4680BD000401402C
:10273C0080B483B000AF0346FB8000BF0C37BD46AE
:10274C0080BC704780B584B000AF78607B68002B8C
:10275C0001D101232BE17B6893F83D30DBB2002BD8
:10276C0006D17B68002283F83C207868FEF766FF70
:10277C007B68242283F83D207B681B681A687B6881
:10278C001B6822F001021A607B681B681A687B6860
:10279C001B6842F400421A607B681B681A687B68ED
:1027AC001B6822F400421A6002F03EFDF8607B6860
:1027BC005B68814A934207D8FB68804A934294BF76
:1027CC0001230023DBB206E0FB687D4A934294BFF1
:1027DC0001230023DBB2002B01D00123E7E0FB68CF
:1027EC00784AA2FB03239B0CBB607B681B685B686D
:1027FC0023F03F017B681B68BA680A435A607B6808
:10280C001B681B6A23F03F017B685B686A4A934232
:10281C0002D8BB68013309E0BB684FF4967202FB27
:10282C0003F3694AA2FB03239B0901337A681268FC
:10283C000B4313627B681B68DB6923F44F4222F065
:10284C00FF027B685B685C498B4219D8FB68591E98
:10285C007B685B685B00B1FBF3F3591C40F6FC73BF
:10286C000B40002B0AD0FB68591E7B685B685B0031
:10287C00B1FBF3F30133C3F30B0351E004234FE03B
:10288C007B689B68002B11D1FB68581E7B685968CC
:10289C000B465B000B44B0FBF3F30133C3F30B03A8
:1028AC00002B0CBF01230023DBB212E0FB68581E87
:1028BC007B6859680B469B000B4499000B44B0FB9A
:1028CC00F3F30133C3F30B03002B0CBF01230023E1
:1028DC00DBB2002B01D0012322E07B689B68002B2C
:1028EC000ED1FB68581E7B6859680B465B000B4485
:1028FC00B0FBF3F30133C3F30B0343F400430FE0DA
:10290C00FB68581E7B6859680B469B000B4499006A
:10291C000B44B0FBF3F30133C3F30B0343F4404319
:10292C00796809681343CB617B681B681B6823F0CB
:10293C00C0017B68DA697B681B6A1A437B681B6879
:10294C000A431A607B681B689B6823F4034323F0DB
:10295C00FF037A6811697A68D26811437A68126841
:10296C000B4393607B681B68DB6823F0FF017B687B
:10297C005A697B689B691A437B681B680A43DA6057
:10298C007B681B681A687B681B6842F001021A603E
:10299C007B6800221A647B68202283F83D207B68C8
:1029AC0000221A637B68002283F83E20002318461D
:1029BC001037BD4680BD00BFA08601007F841E007D
:1029CC00FF083D0083DE1B43D34D621080B483B0FF
:1029DC0000AF78607B681B685B6903F08003802B19
:1029EC0003D17B681B6800221A6100BF0C37BD46FF
:1029FC0080BC704780B588B002AFF8607A601A4628
:102A0C000B467B8113463B81FFF7ECFA7861FB6840
:102A1C0093F83D30DBB2202B40F0E0807B690093D3
:102A2C00192301227049F86801F012FE0346002BAD
:102A3C0001D00223D3E0FB6893F83C30012B01D189
:102A4C000223CCE0FB68012283F83C20FB681B6866
:102A5C001B6803F00103012B07D0FB681B681A6885
:102A6C00FB681B6842F001021A60FB681B681A685D
:102A7C00FB681B6822F400621A60FB68212283F851
:102A8C003D20FB68102283F83E20FB6800221A646C
:102A9C00FB687A685A62FB683A895A85FB685B8DD9
:102AAC009AB2FB681A85FB68504ADA6279897B69AD
:102ABC003A6AF86801F0A2FC0346002B01D001230E
:102ACC008DE000233B61FB681B685B693B61FB6825
:102ADC001B689B693B613B6966E07A69396AF868F7
:102AEC0001F0D0FE0346002B0DD0FB681B6C042BB1
:102AFC0007D1FB681B681A68FB681B6842F40072FC
:102B0C001A6001236BE0FB685B6A1A78FB681B6830
:102B1C001A61FB685B6A5A1CFB685A62FB685B8D26
:102B2C009BB2013B9AB2FB685A85FB681B8D013B3B
:102B3C009AB2FB681A85FB681B685B6903F0040397
:102B4C00042B1BD1FB681B8D002B17D0FB685B6A19
:102B5C001A78FB681B681A61FB685B6A5A1CFB6875
:102B6C005A62FB685B8D9BB2013B9AB2FB685A853B
:102B7C00FB681B8D013B9AB2FB681A857A69396A2E
:102B8C00F86801F0C7FE0346002B0DD0FB681B6CE8
:102B9C00042B07D1FB681B681A68FB681B6842F49E
:102BAC0000721A6001231AE0FB681B8D002B94D174
:102BBC00FB681B681A68FB681B6842F400721A6099
:102BCC00FB68202283F83D20FB68002283F83E201E
:102BDC00FB68002283F83C20002300E00223184607
:102BEC001837BD4680BD00BF020010000000FFFF7B
:102BFC0080B588B000AF78600023BB617B681B6830
:102C0C005B687B617B68DB6A3B617B6893F83E3079
:102C1C00FB737B6893F83D30BB73FB7B102B03D0AD
:102C2C00FB7B402B40F0C1807B681B689B69BB61C0
:102C3C007B681B685B69FB61FB6903F00103002B7C
:102C4C000DD13B69B3F52A0F03D03B69B3F12A4F81
:102C5C0001D1012300E00023012B00F03281FB693C
:102C6C0003F00103002B0CD07B695B0A03F001031A
:102C7C00002B06D0786801F0F5FE786800F099FD1D
:102C8C0092E0FB69DB0803F00103002B09D07B69A0
:102C9C005B0A03F00103002B03D0786800F00EFEF2
:102CAC0082E0FB695B0803F00103002B09D07B6910
:102CBC005B0A03F00103002B03D0786800F027FEB9
:102CCC0072E0BB699B0803F00103002B3BD07B68CF
:102CDC001B685B6803F40063B3F5006F00F0F380CE
:102CEC00FB69DB0903F00103002B0FD07B699B0A06
:102CFC0003F00103002B09D0FB699B0803F00103CF
:102D0C00002B03D1786800F0F1F94DE0FB699B08CA
:102D1C0003F00103002B00F0D6807B695B0A03F003
:102D2C000103002B00F0CF80BB7B212B03D17868F3
:102D3C0000F078FAC7E0FB7B402B40F0C480786849
:102D4C0000F0E6FABFE07B681B685B6803F4006385
:102D5C00B3F5006F00F0B780FB699B0903F001032A
:102D6C00002B0FD07B699B0A03F00103002B09D0C9
:102D7C00FB699B0803F00103002B03D1786800F07A
:102D8C005FFB11E0FB699B0803F00103002B00F0D3
:102D9C009A807B695B0A03F00103002B00F093809F
:102DAC00786800F015FC8EE08DE07B681B6C002BC6
:102DBC0004D07B681B685B69FB6107E07B681B6860
:102DCC009B69BB617B681B685B69FB61FB695B088A
:102DDC0003F00103002B12D07B695B0A03F00103A3
:102DEC00002B0CD07B681B6C002B03D07B681B6802
:102DFC009B69BB61B969786800F0E0FF66E0FB692C
:102E0C001B0903F00103002B09D07B695B0A03F05B
:102E1C000103002B03D0786801F01AF856E0BB7B55
:102E2C00212B02D0BB7B292B25D1FB69DB0903F0BD
:102E3C000103002B0FD07B699B0A03F00103002BCD
:102E4C0009D0FB699B0803F00103002B03D17868C0
:102E5C0000F0F8FE39E0FB699B0803F00103002B3E
:102E6C0033D07B695B0A03F00103002B2DD078680B
:102E7C0000F025FF29E0FB699B0903F00103002BFF
:102E8C000FD07B699B0A03F00103002B09D0FB696F
:102E9C009B0803F00103002B03D1786800F02FFF8F
:102EAC0014E0FB699B0803F00103002B0ED07B6937
:102EBC005B0A03F00103002B08D0786800F05DFF7B
:102ECC0004E000BF02E000BF00E000BF2037BD46B9
:102EDC0080BD80B58AB000AF78607B681B685B6989
:102EEC003B627B681B685B68FB6100237B627B68D1
:102EFC0093F83E30FB763B6A1B0A03F00103002B70
:102F0C0016D0FB691B0A03F00103002B10D07B6A5F
:102F1C0043F001037B627B681B686FF480725A611B
:102F2C007B681B681A687B681B6842F400421A6055
:102F3C003B6A5B0A03F00103002B0ED0FB691B0AF2
:102F4C0003F00103002B08D07B6A43F002037B6281
:102F5C007B681B686FF400725A613B6A9B0A03F032
:102F6C000103002B3FD0FB691B0A03F00103002B6C
:102F7C0039D0FB7EBB767B685B8D9BB27B617B68BB
:102F8C0093F83D30FB747B681B6BFB60BB7E202B86
:102F9C0012D17B69002B0FD1FB7C212B08D0FB7C41
:102FAC00292B05D0FB7C282B06D1FB68212B03D1C8
:102FBC00786801F07DF816E07B681B686FF480621E
:102FCC005A617B6A43F004037B62FB7E102B02D0B8
:102FDC00FB7E402B07D17B681B681A687B681B68DB
:102FEC0042F400721A603B6ADB0A03F00103002B07
:102FFC000ED0FB691B0A03F00103002B08D07B6A7F
:10300C0043F008037B627B681B686FF400625A61B3
:10301C007B6A002B08D07B681A6C7B6A1A437B682E
:10302C001A64786801F0B8F800BF2837BD4680BD37
:10303C0080B483B000AF786000BF0C37BD4680BC55
:10304C00704780B483B000AF786000BF0C37BD46CA
:10305C0080BC704780B483B000AF786000BF0C3781
:10306C00BD4680BC704780B483B000AF786000BFB1
:10307C000C37BD4680BC704780B483B000AF78601D
:10308C000B46FB7013463B8000BF0C37BD4680BC23
:10309C00704780B483B000AF786000BF0C37BD467A
:1030AC0080BC704780B483B000AF786000BF0C3731
:1030BC00BD4680BC704780B483B000AF786000BF61
:1030CC000C37BD4680BC704780B483B000AF7860CD
:1030DC0000BF0C37BD4680BC704780B483B000AFD6
:1030EC00786000BF0C37BD4680BC704780B584B09B
:1030FC0000AF78607B6893F83D30FB737B6893F886
:10310C003E30BB737B68DB6ABB607B681B8D002B1E
:10311C0050D1FB7B212B4DD1BB68082B1DD0BB683C
:10312C00202B1AD0BB6813F5803F16D07B681B6828
:10313C005A687B681B6822F4E0625A607B68112233
:10314C001A637B68002283F83E207B68202283F878
:10315C003D207868FFF76CFF60E07B681B685A685D
:10316C007B681B6822F4E0625A607B681B681A68F3
:10317C007B681B6842F400721A607B6800221A6339
:10318C007B68202283F83D207B6893F83E30DBB2CD
:10319C00402B07D17B68002283F83E207868FFF72C
:1031AC0081FF3BE07B68002283F83E207868FFF7C4
:1031BC003FFF33E0FB7B212B05D0BB7B402B2DD17C
:1031CC00FB7B222B2AD17B685B8D9BB2002B08D119
:1031DC007B681B685A687B681B6822F480625A60A3
:1031EC001CE07B6893F83E30DBB2402B03D178684F
:1031FC0000F08EF812E07B685B6A1A787B681B68BB
:10320C001A617B685B6A5A1C7B685A627B685B8DAF
:10321C009BB2013B9AB27B685A85FFE700BF10371F
:10322C00BD4680BD80B584B000AF78607B68DB6A3A
:10323C00FB607B6893F83D30DBB2212B64D17B685B
:10324C005B8D9BB2002B12D07B685B6A1A787B6813
:10325C001B681A617B685B6A5A1C7B685A627B68C4
:10326C005B8D9BB2013B9AB27B685A854CE0FB6844
:10327C00082B1DD0FB68202B1AD0FB6813F5803F60
:10328C0016D07B681B685A687B681B6822F4E06266
:10329C005A607B6811221A637B68002283F83E20F7
:1032AC007B68202283F83D207868FFF7C1FE2BE075
:1032BC007B681B685A687B681B6822F4E0625A6062
:1032CC007B681B681A687B681B6842F400721A6082
:1032DC007B6800221A637B68202283F83D207B6880
:1032EC0093F83E30DBB2402B07D17B68002283F889
:1032FC003E207868FFF7D6FE06E07B68002283F854
:10330C003E207868FFF794FE00BF1037BD4680BDA5
:10331C0080B584B000AF78607B6893F83D30FB7368
:10332C007B681B6D002B1DD17B68DB6C012B0BD1DB
:10333C007B689B6CDAB27B681B681A617B681B6DBF
:10334C009A1C7B681A6577E07B689B6C9BB21B129E
:10335C00DAB27B681B681A617B681B6D5A1C7B6830
:10336C001A6569E07B681B6D012B0BD17B689B6C2C
:10337C00DAB27B681B681A617B681B6D5A1C7B6810
:10338C001A6559E07B681B6D022B52D1FB7B222BFB
:10339C000DD17B681B681A687B681B6842F48072CD
:1033AC001A607B681B6D5A1C7B681A6544E07B684D
:1033BC005B8D9BB2002B15D0FB7B212B12D17B6834
:1033CC005B6A1A787B681B681A617B685B6A5A1C9B
:1033DC007B685A627B685B8D9BB2013B9AB27B68BF
:1033EC005A8529E07B685B8D9BB2002B24D1FB7B3B
:1033FC00212B21D17B681B685A687B681B6822F4DF
:10340C00E0625A607B681B681A687B681B6842F430
:10341C0000721A607B6800221A637B68202283F892
:10342C003D207B68002283F83E207868FFF73AFE47
:10343C0002E07868FFF7CAFA00BF1037BD4680BDBE
:10344C0080B584B000AF78607B6893F83D30DBB218
:10345C00222B40F0B9807B68DB6AFB607B685B8D5C
:10346C009BB2BB60BB68032B21D97B681B681A69B4
:10347C007B685B6AD2B21A707B685B6A5A1C7B6889
:10348C005A627B685B8D9BB2013B9AB27B685A8512
:10349C007B685B8D9BB2032B40F096807B681B682E
:1034AC005A687B681B6822F480625A608CE07B68E7
:1034BC00DB6A022B7FD0BB68012B02D0BB68002BD0
:1034CC0079D1786801F06EFA0346002B4CD17B68F9
:1034DC001B681A687B681B6822F480621A607B6820
:1034EC001B685A687B681B6822F4E0625A607B6830
:1034FC001B681A697B685B6AD2B21A707B685B6A5C
:10350C005A1C7B685A627B685B8D9BB2013B9AB2FA
:10351C007B685A857B68202283F83D207B6893F872
:10352C003E30DBB2402B0AD17B68002283F83E2070
:10353C007B6800221A637868FFF7BDFD44E07B6866
:10354C00002283F83E20FB68082B02D0FB68202B5E
:10355C0003D17B6800221A6302E07B6812221A6393
:10356C007868FFF76EFD2FE07B681B685A687B68F4
:10357C001B6822F4E0625A607B681B681A697B68DE
:10358C005B6AD2B21A707B685B6A5A1C7B685A629F
:10359C007B685B8D9BB2013B9AB27B685A857B68DA
:1035AC00202283F83D207B68002283F83E20786837
:1035BC00FFF78AFD08E07B681B685A687B681B680C
:1035CC0022F480625A60FFE700BF1037BD4680BD11
:1035DC0080B584B000AF78607B68DB6AFB607B6889
:1035EC005B8D9BB2042B1BD17B681B685A687B6874
:1035FC001B6822F480625A607B681B681A697B68BE
:10360C005B6AD2B21A707B685B6A5A1C7B685A621E
:10361C007B685B8D9BB2013B9AB27B685A85C4E098
:10362C007B685B8D9BB2032B29D17B681B685A6826
:10363C007B681B6822F480625A60FB68042B0AD0FA
:10364C00FB68022B07D07B681B681A687B681B68B9
:10365C0022F480621A607B681B681A697B685B6A5B
:10366C00D2B21A707B685B6A5A1C7B685A627B68A0
:10367C005B8D9BB2013B9AB27B685A8595E07B6867
:10368C005B8D9BB2022B7DD1FB68012B02D0FB68BA
:10369C00102B08D17B681B681A687B681B6822F4A6
:1036AC0080621A6016E0FB68042B02D0FB68022BC8
:1036BC0008D17B681B681A687B681B6842F48062BF
:1036CC001A6007E07B681B681A687B681B6842F409
:1036DC0000721A607B681B681A697B685B6AD2B2DD
:1036EC001A707B685B6A5A1C7B685A627B685B8DBC
:1036FC009BB2013B9AB27B685A857B681B681A693E
:10370C007B685B6AD2B21A707B685B6A5A1C7B68F6
:10371C005A627B685B8D9BB2013B9AB27B685A857F
:10372C007B681B685A687B681B6822F440725A607D
:10373C007B68202283F83D207B6893F83E30DBB217
:10374C00402B0AD17B68002283F83E207B68002244
:10375C001A637868FFF7AFFC27E07B68002283F8D8
:10376C003E20FB68082B02D0FB68202B03D17B6822
:10377C0000221A6302E07B6812221A637868FFF752
:10378C0060FC12E07B681B681A697B685B6AD2B2CA
:10379C001A707B685B6A5A1C7B685A627B685B8D0B
:1037AC009BB2013B9AB27B685A8500BF1037BD466D
:1037BC0080BD80B483B000AF78607B6893F83E30F6
:1037CC00DBB2402B17D17B681B6D002B09D17B68BA
:1037DC005B6CDBB21A467B681B6802F0FE021A6156
:1037EC0067E07B685B6CDBB243F00103DAB27B68A9
:1037FC001B681A615DE07B681B69B3F5804F33D1A0
:10380C007B6893F83D30DBB2212B09D17B685B6C74
:10381C00DBB21A467B681B6802F0FE021A6108E0F4
:10382C007B685B6CDBB243F00103DAB27B681B682C
:10383C001A617B685B6B002B04D07B685B6B9B6AAB
:10384C00002B08D17B689B6B002B32D07B689B6B69
:10385C009B6A002B2DD07B681B685A687B681B68A1
:10386C0042F400625A6024E07B681B6D002B0ED181
:10387C007B685B6C9BB2DB11DBB203F00603DBB243
:10388C0063F00F03DAB27B681B681A6111E07B6886
:10389C001B6D012B0DD17B685B6C9BB2DB11DBB21A
:1038AC0003F00603DBB263F00E03DAB27B681B682D
:1038BC001A6100BF0C37BD4680BC704780B483B022
:1038CC0000AF78607B685B6CDAB27B681B681A614E
:1038DC007B685B6B002B04D07B685B6B9B6A002B5B
:1038EC0008D17B689B6B002B0CD07B689B6B9B6A15
:1038FC00002B07D07B681B685A687B681B6842F4F6
:10390C0000625A6000BF0C37BD4680BC704780B463
:10391C0091B000AF78607B6893F83E3087F83F3009
:10392C007B68DB6ABB637B681B6B7B637B6893F890
:10393C003D30DBB2222B40F074817B681B6D002B79
:10394C000FD197F83F30402B0BD100233B637B68A2
:10395C001B685B693B637B681B689B693B633B6BC8
:10396C006BE17B681B6D002B1DD17B681B69B3F56C
:10397C00404F18D10023FB627B681B685B69FB62BC
:10398C007B681B689B69FB62FB6A7B681B681A6817
:10399C007B681B6842F480721A607B681B6D5A1C32
:1039AC007B681A6549E17B685B8D9BB2002B13D158
:1039BC000023BB627B681B685B69BB627B681B680E
:1039CC009B69BB62BB6A7B681B681A687B681B6857
:1039DC0042F400721A6020E17B685B8D9BB2012B74
:1039EC0040F08A80BB6B13F5803F37D17B681B6836
:1039FC001A687B681B6822F480621A607B681B68FB
:103A0C005B6803F40063B3F5006F13D17B681B682C
:103A1C001A687B681B6822F480621A6000237B6240
:103A2C007B681B685B697B627B681B689B697B623C
:103A3C007B6AF2E000233B627B681B685B693B623C
:103A4C007B681B689B693B623B6A7B681B681A68D6
:103A5C007B681B6842F400721A60DEE0BB6B082BBB
:103A6C002ED0BB6B202B2BD07B6B122B02D1BB6BC4
:103A7C00012B25D1BB6B042B0ED0BB6B022B0BD0B7
:103A8C00BB6B102B08D07B681B681A687B681B68A3
:103A9C0022F480621A6007E07B681B681A687B68F6
:103AAC001B6842F480621A600023FB617B681B6810
:103ABC005B69FB617B681B689B69FB61FB69ACE024
:103ACC007B681B681A687B681B6822F480621A602A
:103ADC000023BB617B681B685B69BB617B681B68EF
:103AEC009B69BB61BB697B681B681A687B681B6838
:103AFC0042F400721A6090E07B685B8D9BB2022BE3
:103B0C0058D1BB6B042B21D0BB6B022B1ED0BB6BD3
:103B1C00102B1BD07B681B681A687B681B6842F4EF
:103B2C0000621A6000237B617B681B685B697B61A8
:103B3C007B681B689B697B617B697B681B681A6867
:103B4C007B681B6822F480621A6012E07B681B6839
:103B5C001A687B681B6842F480621A6000233B6120
:103B6C007B681B685B693B617B681B689B693B617D
:103B7C003B697B681B685B6803F40063B3F5006FFB
:103B8C004BD1BB6B13F5803F0BD0BB6B012B08D01B
:103B9C00BB6B082B05D0BB6B102B02D0BB6B202B47
:103BAC003BD17B681B685A687B681B6842F4805267
:103BBC005A6032E07B681B681A687B681B6842F4A9
:103BCC0080621A607B681B685B6803F40063B3F562
:103BDC00006F17D1BB6B13F5803F0BD0BB6B012B68
:103BEC0008D0BB6B082B05D0BB6B102B02D0BB6B6A
:103BFC00202B07D17B681B685A687B681B6842F4D2
:103C0C0080525A600023FB607B681B685B69FB6019
:103C1C007B681B689B69FB60FB687B6800221A65EC
:103C2C000BE00023BB607B681B685B69BB607B6837
:103C3C001B689B69BB60BB68FFE700BF4437BD4690
:103C4C0080BC704780B584B000AF78607B6893F817
:103C5C003D30FB737B685B8D9BB2002B2BD07B685C
:103C6C005B6A1A787B681B681A617B685B6A5A1CF2
:103C7C007B685A627B685B8D9BB2013B9AB27B6816
:103C8C005A857B685B8D9BB2002B14D1FB7B292B57
:103C9C0011D17B681B685A687B681B6822F48062B0
:103CAC005A607B6821221A637B68282283F83D20A6
:103CBC007868FFF7CFF900BF1037BD4680BD80B4E0
:103CCC0083B000AF78607B685B8D9BB2002B11D00A
:103CDC007B685B6A1A787B681B681A617B685B6A15
:103CEC005A1C7B685A627B685B8D9BB2013B9AB213
:103CFC007B685A8500BF0C37BD4680BC704780B5C9
:103D0C0084B000AF78607B6893F83D30FB737B68C0
:103D1C005B8D9BB2002B2CD07B681B681A697B686F
:103D2C005B6AD2B21A707B685B6A5A1C7B685A62F7
:103D3C007B685B8D9BB2013B9AB27B685A857B6832
:103D4C005B8D9BB2002B14D1FB7B2A2B11D17B6892
:103D5C001B685A687B681B6822F480625A607B6817
:103D6C0022221A637B68282283F83D207868FFF7AB
:103D7C007AF900BF1037BD4680BD80B483B000AF68
:103D8C0078607B685B8D9BB2002B12D07B681B68C4
:103D9C001A697B685B6AD2B21A707B685B6A5A1CC0
:103DAC007B685A627B685B8D9BB2013B9AB27B68E5
:103DBC005A8500BF0C37BD4680BC704780B584B0B7
:103DCC0000AF786039600023FB737B6893F83D305B
:103DDC00DBB203F02803282B27D17B681B685A68B9
:103DEC007B681B6822F480625A603B689B0803F076
:103DFC000103002B01D10123FB733B68DB0903F0AA
:103E0C000103002B03D17B68DB68BB8102E07B687C
:103E1C009B69BB817B68002283F83C20BA89FB7BC1
:103E2C0019467868FFF728F90EE00023BB607B6821
:103E3C001B685B69BB607B681B689B69BB60BB686C
:103E4C007B68002283F83C2000BF1037BD4680BD44
:103E5C0080B584B000AF78607B6893F83D30FB731D
:103E6C007B681B685A687B681B6822F4E0625A60A6
:103E7C000023BB607B681B685B69BB607B681B684D
:103E8C001A687B681B6842F001021A60BB687B6889
:103E9C001B681A687B681B6822F480621A607B6856
:103EAC001B685B6803F40063B3F5006F72D1FB7B96
:103EBC00222B02D0FB7B2A2B35D17B689B6B1B689A
:103ECC005B689AB27B685A857B685B8D9BB2002BD2
:103EDC0005D07B681B6C43F004027B681A647B681A
:103EEC001B685A687B681B6822F400625A607B6806
:103EFC009B6B1846FEF72AFA0346012B49D07B68C8
:103F0C009B6B694A5A637B689B6B1846FEF7A6F954
:103F1C000346002B3DD07B689B6B5B6B7A68926B86
:103F2C001046984735E07B685B6B1B685B689AB200
:103F3C007B685A857B685B8D9BB2002B05D07B68B8
:103F4C001B6C43F004027B681A647B681B685A681C
:103F5C007B681B6822F400625A607B685B6B1846B6
:103F6C00FEF7F4F90346012B14D07B685B6B4E4AC9
:103F7C005A637B685B6B1846FEF770F90346002B9F
:103F8C0008D07B685B6B5B6B7A68526B104698470A
:103F9C0000E000BF7B685B8D9BB2002B3ED07B6842
:103FAC001B685B6903F00403042B12D17B681B684C
:103FBC001A697B685B6AD2B21A707B685B6A5A1C9E
:103FCC007B685A627B685B8D9BB2013B9AB27B68C3
:103FDC005A857B681B685B6903F04003402B12D148
:103FEC007B681B681A697B685B6AD2B21A707B6843
:103FFC005B6A5A1C7B685A627B685B8D9BB2013B87
:10400C009AB27B685A857B685B8D9BB2002B05D07E
:10401C007B681B6C43F004027B681A647B681B6C26
:10402C00002B03D0786800F0B7F839E0FB7B2A2B23
:10403C0009D17B6800221A637B68282283F83D2013
:10404C007868FFF710F87B6893F83D30DBB2282BCB
:10405C0011D17B68154ADA627B6800221A637B688F
:10406C00202283F83D207B68002283F83E2078686C
:10407C00FFF70FF814E07B681B6B222B02D0FB7B45
:10408C00222B0DD17B6800221A637B68202283F8D7
:10409C003D207B68002283F83E207868FEF7E3FF22
:1040AC0000BF1037BD4680BD0D4500080000FFFF66
:1040BC0080B584B000AF78607B6893F83D30FB73BB
:1040CC007B68DB6ABB60BB68082B02D0BB68202B0B
:1040DC0029D1FB7B282B26D17B682E4ADA627B68A0
:1040EC001B685A687B681B6822F4E0625A607B6824
:1040FC001B686FF480625A617B681B681A687B6866
:10410C001B6822F480621A607B6800221A637B6849
:10411C00202283F83D207B68002283F83E207868BB
:10412C00FEF7B7FF31E0FB7B212B29D17B68194AC5
:10413C00DA627B6821221A637B68202283F83D2097
:10414C007B68002283F83E207B681B685A687B687A
:10415C001B6822F4E0625A607B681B686FF4806213
:10416C005A617B681B681A687B681B6822F4806242
:10417C001A607868FEF72AFC7868FEF76BFF04E09B
:10418C007B681B686FF480625A6100BF1037BD46B4
:10419C0080BD00BF0000FFFF80B584B000AF786029
:1041AC007B6893F83D30FB737B6893F83E30BB73B0
:1041BC00BB7B102B02D0BB7B402B0AD1FB7B222B71
:1041CC0007D17B681B681A687B681B6822F4006245
:1041DC001A60FB7B03F02803282B07D17B68002295
:1041EC001A637B68282283F83D2015E07B681B68E6
:1041FC005B6803F40063B3F5006F0AD0FB7B602BA4
:10420C0007D07B68202283F83D207B68002283F84E
:10421C003E207B6800221A637B681B685B6803F492
:10422C000063B3F5006F62D17B681B685A687B68CA
:10423C001B6822F400625A607B685B6B93F8213038
:10424C00DBB2012B20D07B685B6B6A4A5A637B68BC
:10425C005B6B1846FEF702F80346002B00F08980D2
:10426C007B681B681A687B681B6822F001021A6065
:10427C007B68202283F83D207B685B6B5B6B7A68E4
:10428C00526B1046984774E07B689B6B594A5A6393
:10429C007B689B6B1846FDF7E1FF0346002B68D04B
:1042AC007B681B685B6903F04003402B0BD17B6878
:1042BC001B681A697B685B6AD2B21A707B685B6A8E
:1042CC005A1C7B685A627B681B681A687B681B687F
:1042DC0022F001021A607B68202283F83D207B6863
:1042EC009B6B5B6B7A68926B1046984741E07B68DE
:1042FC0093F83D30DBB2602B25D17B68202283F80C
:10430C003D207B6800221A647B681B685B6903F0A4
:10431C004003402B0BD17B681B681A697B685B6A76
:10432C00D2B21A707B685B6A5A1C7B685A627B68D3
:10433C001B681A687B681B6822F001021A60786897
:10434C00FEF7CBFE15E07B681B685B6903F040034E
:10435C00402B0BD17B681B681A697B685B6AD2B2F5
:10436C001A707B685B6A5A1C7B685A627868FEF725
:10437C00ABFE7B681B6CBB60BB6803F00103002BBE
:10438C000ED1BB6803F00203002B09D1BB6803F00C
:10439C000403002B04D1BB6803F00803002B07D0E7
:1043AC007B681B685A687B681B6822F4E0625A6061
:1043BC007B6893F83D30FB737B681B6C03F0040344
:1043CC00042B13D1FB7B282B10D17B680A4ADA62B1
:1043DC007B6800221A637B68202283F83D207B686F
:1043EC00002283F83E207868FEF753FE00BF10379A
:1043FC00BD4680BD0D4500080000FFFF80B588B0AC
:10440C0002AFF8607A603B600B467B81FB68DB6A2D
:10441C007B617B69082B06D07B69012B03D07B6900
:10442C0013F5803F08D1FB681B681A68FB681B6892
:10443C0042F480721A600BE0FB681B6B122B07D1E5
:10444C00FB681B681A68FB681B6842F480721A6070
:10445C003B6800937B6800224FF00111F86800F074
:10446C00F7F80346002B0DD0FB681B681B6803F4A0
:10447C008073B3F5807F03D1FB684FF400721A642C
:10448C00032335E0FB681B69B3F5804F08D17B89AA
:10449C00DBB21A46FB681B6802F0FE021A611BE0D5
:1044AC007B89DB11DBB203F00603DBB263F00F0395
:1044BC00DAB2FB681B681A613B687A680E49F868C7
:1044CC0000F040F90346002B01D0012310E07B895A
:1044DC00DAB2FB681B681A613B687A680749F868AE
:1044EC0000F030F90346002B01D0012300E000233B
:1044FC0018461837BD4680BD0800010002000100B7
:10450C0080B586B000AF78600023FB607B685B6A87
:10451C007B617B6993F83D30FB744B4B1B68DB086C
:10452C004A4AA2FB03231A0A13469B001344DA00DF
:10453C00D31AFB60FB68002B06D17B691B6C43F024
:10454C0020027B691A640AE0FB68013BFB607B6913
:10455C001B681B6803F40073B3F5007FEAD07B691A
:10456C005B6B002B03D07B695B6B00229A627B69CF
:10457C009B6B002B03D07B699B6B00229A627B693F
:10458C001B681A687B691B6822F480621A607B695D
:10459C0000225A857B695B6B002B03D07B695B6BBC
:1045AC0000225A637B699B6B002B03D07B699B6B4E
:1045BC0000225A637B691B681A687B691B6822F0AE
:1045CC0001021A607B6993F83D30DBB2602B0ED18F
:1045DC007B69202283F83D207B69002283F83E20F2
:1045EC007B6900221A647869FEF777FD27E0FB7C73
:1045FC0003F02803282B17D17B691B681A687B6989
:10460C001B6842F001021A607B691B681A687B699F
:10461C001B6842F480621A607B6900221A637B6912
:10462C00282283F83D2007E07B69202283F83D2077
:10463C007B69002283F83E207869FEF745FD00BFB8
:10464C001837BD4680BD00BF7C00002089B5F8142A
:10465C0080B584B000AFF860B9603B601346FB7165
:10466C0048E03B68B3F1FF3F44D0FDF7BBFC02468A
:10467C00BB69D31A3A689A4202D33B68002B39D1F2
:10468C00BB681B0CDBB2012B0DD1FB681B685B6993
:10469C00DA43BB6813409BB2002B0CBF01230023F1
:1046AC00DBB21A460CE0FB681B689B69DA43BB68FB
:1046BC0013409BB2002B0CBF01230023DBB21A4624
:1046CC00FB799A4216D1FB6800221A63FB68202200
:1046DC0083F83D20FB68002283F83E20FB681B6CAE
:1046EC0043F02002FB681A64FB68002283F83C202C
:1046FC00012323E0BB681B0CDBB2012B0DD1FB6843
:10470C001B685B69DA43BB6813409BB2002B0CBF80
:10471C0001230023DBB21A460CE0FB681B689B6983
:10472C00DA43BB6813409BB2002B0CBF0123002360
:10473C00DBB21A46FB799A4293D000231846103705
:10474C00BD4680BD80B584B000AFF860B9607A60BA
:10475C003B6071E0FB681B685B6903F48063B3F535
:10476C00806F23D1FB681B681A68FB681B6842F4D6
:10477C0000721A60FB681B686FF480625A61FB68F8
:10478C0000221A63FB68202283F83D20FB6800227C
:10479C0083F83E20FB681B6C43F00402FB681A6430
:1047AC00FB68002283F83C20012367E07B68B3F1AF
:1047BC00FF3F41D0FDF716FC02463B68D31A7A68DE
:1047CC009A4202D37B68002B36D1BB681B0CDBB240
:1047DC00012B0CD1FB681B685B69DA43BB68134087
:1047EC009BB2002B14BF01230023DBB20BE0FB6850
:1047FC001B689B69DA43BB6813409BB2002B14BF48
:10480C0001230023DBB2002B16D0FB6800221A63B5
:10481C00FB68202283F83D20FB68002283F83E20B1
:10482C00FB681B6C43F02002FB681A64FB680022D7
:10483C0083F83C20012321E0BB681B0CDBB2012B6D
:10484C000CD1FB681B685B69DA43BB6813409BB2F5
:10485C00002B14BF01230023DBB20BE0FB681B68A9
:10486C009B69DA43BB6813409BB2002B14BF012336
:10487C000023DBB2002B7FF46DAF002318461037FA
:10488C00BD4680BD80B584B000AFF860B9607A6079
:10489C0034E0F86800F0B8F80346002B01D001238F
:1048AC0034E0BB68B3F1FF3F28D0FDF79BFB024619
:1048BC007B68D31ABA689A4202D3BB68002B1DD10D
:1048CC00FB681B685B6903F08003802B16D0FB68C8
:1048DC0000221A63FB68202283F83D20FB6800222B
:1048EC0083F83E20FB681B6C43F02002FB681A64C3
:1048FC00FB68002283F83C20012307E0FB681B685F
:10490C005B6903F08003802BC3D10023184610375A
:10491C00BD4680BD80B584B000AFF860B9607A60E8
:10492C0034E0F86800F070F80346002B01D0012346
:10493C0034E0BB68B3F1FF3F28D0FDF753FB0246D0
:10494C007B68D31ABA689A4202D3BB68002B1DD17C
:10495C00FB681B685B6903F00403042B16D0FB682F
:10496C0000221A63FB68202283F83D20FB6800229A
:10497C0083F83E20FB681B6C43F02002FB681A6432
:10498C00FB68002283F83C20012307E0FB681B68CE
:10499C005B6903F00403042BC3D1002318461037C2
:1049AC00BD4680BD80B485B000AF78600023FB604D
:1049BC00134B1B68DB08134AA2FB03231A0A13468A
:1049CC009B001344FB60FB68013BFB60FB68002B06
:1049DC0007D17B681B6C43F020027B681A640123AF
:1049EC0008E07B681B681B6803F40073B3F5007F59
:1049FC00E9D0002318461437BD4680BC704700BF71
:104A0C007C00002089B5F81480B483B000AF7860C6
:104A1C007B681B685B6903F48063B3F5806F1BD103
:104A2C007B681B686FF480625A617B6800221A6392
:104A3C007B68202283F83D207B68002283F83E208F
:104A4C007B681B6C43F004027B681A647B68002251
:104A5C0083F83C20012300E0002318460C37BD46A8
:104A6C0080BC704780B483B000AF78607B68DB6A31
:104A7C00B3F52A0F03D17B680122DA6207E07B6869
:104A8C00DB6AB3F12A4F02D17B680822DA6200BFDD
:104A9C000C37BD4680BC704780B586B000AF7860DF
:104AAC007B68002B01D101236CE27B681B6803F04F
:104ABC000103002B00F08780924B5B6803F00C0322
:104ACC00042B0CD08F4B5B6803F00C03082B12D11A
:104ADC008C4B5B6803F48033B3F5803F0BD1894B6F
:104AEC001B6803F40033002B6CD07B685B68002BD5
:104AFC0068D1012346E27B685B68B3F5803F06D141
:104B0C00804B1B687F4A43F4803313602EE07B6834
:104B1C005B68002B0CD17B4B1B687A4A23F48033E7
:104B2C001360784B1B68774A23F4802313601DE0D5
:104B3C007B685B68B3F5A02F0CD1724B1B68714A74
:104B4C0043F4802313606F4B1B686E4A43F480332D
:104B5C0013600BE06B4B1B686A4A23F480331360C1
:104B6C00684B1B68674A23F4802313607B685B687F
:104B7C00002B13D0FDF736FA386108E0FDF732FA56
:104B8C0002463B69D31A642B01D90323FAE15D4B2E
:104B9C001B6803F40033002BF0D014E0FDF722FA6D
:104BAC00386108E0FDF71EFA02463B69D31A642B04
:104BBC0001D90323E6E1534B1B6803F40033002BAC
:104BCC00F0D100E000BF7B681B6803F00203002BF0
:104BDC0063D04C4B5B6803F00C03002B0BD0494BA0
:104BEC005B6803F00C03082B1CD1464B5B6803F489
:104BFC008033002B16D1434B1B6803F00203002BB0
:104C0C0005D07B681B69012B01D00123BAE13D4B18
:104C1C001B6823F0F8027B685B69DB00394913439E
:104C2C000B603AE07B681B69002B20D0364B0122CD
:104C3C001A60FDF7D7F9386108E0FDF7D3F90246A1
:104C4C003B69D31A022B01D903239BE12D4B1B6823
:104C5C0003F00203002BF0D02A4B1B6823F0F80260
:104C6C007B685B69DB00274913430B6015E0264B1F
:104C7C0000221A60FDF7B6F9386108E0FDF7B2F9C9
:104C8C0002463B69D31A022B01D903237AE11D4B4F
:104C9C001B6803F00203002BF0D17B681B6803F048
:104CAC000803002B3AD07B689B69002B19D0174B5B
:104CBC0001221A60FDF796F9386108E0FDF792F9C8
:104CCC0002463B69D31A022B01D903235AE10D4B3F
:104CDC005B6A03F00203002BF0D0012000F0CCFA49
:104CEC001CE00A4B00221A60FDF77CF938610FE0DA
:104CFC00FDF778F902463B69D31A022B08D9032336
:104D0C0040E100BF001002400000424280044242D9
:104D1C009E4B5B6A03F00203002BE9D17B681B6896
:104D2C0003F00403002B00F0A6800023FB75974BC7
:104D3C00DB6903F08053002B0DD1944BDB69934A54
:104D4C0043F08053D361914BDB6903F08053BB601C
:104D5C00BB680123FB758E4B1B6803F48073002B1F
:104D6C0018D18B4B1B688A4A43F480731360FDF790
:104D7C0039F9386108E0FDF735F902463B69D31A79
:104D8C00642B01D90323FDE0814B1B6803F4807372
:104D9C00002BF0D07B68DB68012B06D17B4B1B6AA8
:104DAC007A4A43F0010313622DE07B68DB68002B29
:104DBC000CD1764B1B6A754A23F001031362734BBB
:104DCC001B6A724A23F0040313621CE07B68DB68E5
:104DDC00052B0CD16D4B1B6A6C4A43F00403136218
:104DEC006A4B1B6A694A43F0010313620BE0674B81
:104DFC001B6A664A23F001031362644B1B6A634A05
:104E0C0023F0040313627B68DB68002B15D0FDF7DD
:104E1C00E9F838610AE0FDF7E5F802463B69D31A78
:104E2C0041F28832934201D90323ABE0574B1B6A02
:104E3C0003F00203002BEED014E0FDF7D3F8386139
:104E4C000AE0FDF7CFF802463B69D31A41F28832EB
:104E5C00934201D9032395E04C4B1B6A03F00203E8
:104E6C00002BEED1FB7D012B05D1484BDB69474A6A
:104E7C0023F08053D3617B68DB69002B00F08180C9
:104E8C00424B5B6803F00C03082B61D07B68DB6939
:104E9C00022B46D13F4B00221A60FDF7A3F8386174
:104EAC0008E0FDF79FF802463B69D31A022B01D9A3
:104EBC00032367E0354B1B6803F00073002BF0D124
:104ECC007B681B6AB3F5803F08D1304B5B6823F4D9
:104EDC0000327B689B682D4913434B602B4B5B68FE
:104EEC0023F474127B68196A7B685B6A0B4327494D
:104EFC0013434B60274B01221A60FDF773F838619E
:104F0C0008E0FDF76FF802463B69D31A022B01D972
:104F1C00032337E01D4B1B6803F00073002BF0D00C
:104F2C002FE01C4B00221A60FDF75CF8386108E09A
:104F3C00FDF758F802463B69D31A022B01D903231B
:104F4C0020E0124B1B6803F00073002BF0D118E02B
:104F5C007B68DB69012B01D1012313E00B4B5B68F0
:104F6C00FB60FB6803F480327B681B6A9A4206D1B3
:104F7C00FB6803F470127B685B6A9A4201D00123D0
:104F8C0000E0002318461837BD4680BD00100240D3
:104F9C00007000406000424280B584B000AF786081
:104FAC0039607B68002B01D10123D0E06A4B1B6870
:104FBC0003F007033A689A4210D9674B1B6823F039
:104FCC00070265493B6813430B60634B1B6803F096
:104FDC0007033A689A4201D00123B8E07B681B684A
:104FEC0003F00203002B20D07B681B6803F0040342
:104FFC00002B05D0594B5B68584A43F4E06353606F
:10500C007B681B6803F00803002B05D0534B5B68CF
:10501C00524A43F460535360504B5B6823F0F002E8
:10502C007B689B684D4913434B607B681B6803F09E
:10503C000103002B40D07B685B68012B07D1474BE9
:10504C001B6803F40033002B15D101237FE07B6830
:10505C005B68022B07D1414B1B6803F00073002BDC
:10506C0009D1012373E03D4B1B6803F00203002BB5
:10507C0001D101236BE0394B5B6823F003027B68A1
:10508C005B68364913434B60FCF7ACFFF8600AE0F1
:10509C00FCF7A8FF0246FB68D31A41F28832934210
:1050AC0001D9032353E02D4B5B6803F00C027B68A2
:1050BC005B689B009A42EBD1274B1B6803F00703FC
:1050CC003A689A4210D2244B1B6823F007022249FB
:1050DC003B6813430B60204B1B6803F007033A68D3
:1050EC009A4201D0012332E07B681B6803F0040371
:1050FC00002B08D0194B5B6823F4E0627B68DB68FB
:10510C00164913434B607B681B6803F00803002BA4
:10511C0009D0124B5B6823F460527B681B69DB007F
:10512C000E4913434B6000F021F802460B4B5B68B1
:10513C001B0903F00F030A49CB5C22FA03F3094A5B
:10514C001360094B1B681846FCF70AFF002318462E
:10515C001037BD4680BD00BF002002400010024049
:10516C00806500087C0000208C00002080B487B093
:10517C0000AF0023FB600023BB6000237B61002396
:10518C007B6000233B611E4B5B68FB60FB6803F09C
:10519C000C03042B02D0082B03D027E0194B3B61E6
:1051AC0027E0FB689B0C03F00F03174AD35C7B6072
:1051BC00FB6803F48033002B10D0114B5B685B0C45
:1051CC0003F00103114AD35CBB607B680D4A02FB00
:1051DC0003F2BB68B2FBF3F37B6104E07B680C4A1F
:1051EC0002FB03F37B617B693B6102E0054B3B6196
:1051FC0000BF3B6918461C37BD4680BC704700BFDA
:10520C000010024000127A0098650008A86500089A
:10521C0000093D0080B400AF024B1B681846BD4628
:10522C0080BC70477C00002080B500AFFFF7F2FF18
:10523C000246054B5B681B0A03F007030349CB5C72
:10524C0022FA03F3184680BD001002409065000856
:10525C0080B500AFFFF7DEFF0246054B5B68DB0A4B
:10526C0003F007030349CB5C22FA03F3184680BD15
:10527C00001002409065000880B485B000AF7860E3
:10528C000A4B1B680A4AA2FB03235B0A7A6802FBDF
:10529C0003F3FB6000BFFB685A1EFA60002BF9D1C8
:1052AC0000BF00BF1437BD4680BC70477C00002097
:1052BC00D34D621080B582B000AF78607B68002B54
:1052CC0001D1012341E07B6893F83D30DBB2002B28
:1052DC0006D17B68002283F83C207868FCF70EFA34
:1052EC007B68022283F83D207B681A687B68043354
:1052FC001946104600F05CFA7B68012283F84620C0
:10530C007B68012283F83E207B68012283F83F20D2
:10531C007B68012283F840207B68012283F84120BE
:10532C007B68012283F842207B68012283F84320AA
:10533C007B68012283F844207B68012283F8452096
:10534C007B68012283F83D20002318460837BD46B0
:10535C0080BD000080B485B000AF78607B6893F8A6
:10536C003D30DBB2012B01D001233AE07B680222F5
:10537C0083F83D207B681B68DA687B681B6842F009
:10538C000102DA607B681B68184A93420ED07B6876
:10539C001B68B3F1804F09D07B681B68144A934299
:1053AC0004D07B681B68134A934211D17B681B683D
:1053BC009B6803F00703FB60FB68062B10D07B682F
:1053CC001B681A687B681B6842F001021A6007E0D0
:1053DC007B681B681A687B681B6842F001021A60C4
:1053EC00002318461437BD4680BC7047002C014082
:1053FC00000400400008004080B584B000AF786025
:10540C007B681B68DB68FB607B681B681B69BB6087
:10541C00BB6803F00203002B20D0FB6803F00203EF
:10542C00002B1BD07B681B686FF002021A617B6833
:10543C0001221A777B681B689B6903F00303002B1E
:10544C0003D0786800F098F905E0786800F08BF9E3
:10545C00786800F09AF97B6800221A77BB6803F031
:10546C000403002B20D0FB6803F00403002B1BD09B
:10547C007B681B686FF004021A617B6802221A7742
:10548C007B681B689B6903F44073002B03D078681E
:10549C0000F072F905E0786800F065F9786800F0C2
:1054AC0074F97B6800221A77BB6803F00803002BA1
:1054BC0020D0FB6803F00803002B1BD07B681B6813
:1054CC006FF008021A617B6804221A777B681B68EC
:1054DC00DB6903F00303002B03D0786800F04CF970
:1054EC0005E0786800F03FF9786800F04EF97B68C9
:1054FC0000221A77BB6803F01003002B20D0FB6846
:10550C0003F01003002B1BD07B681B686FF010029C
:10551C001A617B6808221A777B681B68DB6903F4C5
:10552C004073002B03D0786800F026F905E078680A
:10553C0000F019F9786800F028F97B6800221A77D6
:10554C00BB6803F00103002B0CD0FB6803F00103D4
:10555C00002B07D07B681B686FF001021A6178681A
:10556C00FBF7EEFDBB6803F08003002B0CD0FB684F
:10557C0003F08003002B07D07B681B686FF0800260
:10558C001A61786800F07FFABB6803F04003002BC7
:10559C000CD0FB6803F04003002B07D07B681B6822
:1055AC006FF040021A61786800F0F8F8BB6803F0FD
:1055BC002003002B0CD0FB6803F02003002B07D03A
:1055CC007B681B686FF020021A61786800F052FA51
:1055DC0000BF1037BD4680BD80B584B000AF786089
:1055EC0039600023FB737B6893F83C30012B01D1AD
:1055FC000223B4E07B68012283F83C207B68022202
:10560C0083F83D207B681B689B68BB60BB6823F0FC
:10561C007703BB60BB6823F47F43BB607B681B686C
:10562C00BA689A603B681B68B3F5005F3ED0B3F56F
:10563C00005F00F28780B3F5805F00F08680B3F5E1
:10564C00805F7FD8702B1AD0702B7BD8602B50D0FA
:10565C00602B77D8502B3CD0502B73D8402B58D084
:10566C00402B6FD8302B64D0302B6BD8202B60D0D4
:10567C00202B67D8002B5CD0102B5AD062E07B68B3
:10568C0018683B6899683B685A683B68DB6800F0AF
:10569C0074F97B681B689B68BB60BB6843F077033D
:1056AC00BB607B681B68BA689A604FE07B681868BF
:1056BC003B6899683B685A683B68DB6800F05DF9A9
:1056CC007B681B689A687B681B6842F480429A600E
:1056DC003CE07B6818683B6859683B68DB681A4695
:1056EC0000F0D4F87B681B685021184600F02BF9A9
:1056FC002CE07B6818683B6859683B68DB681A4685
:10570C0000F0F2F87B681B686021184600F01BF96A
:10571C001CE07B6818683B6859683B68DB681A4674
:10572C0000F0B4F87B681B684021184600F00BF9B8
:10573C000CE07B681A683B681B681946104600F041
:10574C0002F903E00123FB7300E000BF7B68012238
:10575C0083F83D207B68002283F83C20FB7B1846B5
:10576C001037BD4680BD80B483B000AF786000BFF9
:10577C000C37BD4680BC704780B483B000AF7860F6
:10578C0000BF0C37BD4680BC704780B483B000AFFF
:10579C00786000BF0C37BD4680BC704780B483B0C6
:1057AC0000AF786000BF0C37BD4680BC704700006E
:1057BC0080B485B000AF786039607B681B68FB6093
:1057CC007B682F4A93420BD07B68B3F1804F07D094
:1057DC007B682C4A934203D07B682B4A934208D1B6
:1057EC00FB6823F07003FB603B685B68FA6813434B
:1057FC00FB607B68224A93420BD07B68B3F1804FED
:10580C0007D07B681F4A934203D07B681E4A9342A1
:10581C0008D1FB6823F44073FB603B68DB68FA68D3
:10582C001343FB60FB6823F080023B685B69134306
:10583C00FB607B68FA681A603B689A687B68DA627E
:10584C003B681A687B689A627B680D4A934203D165
:10585C003B681A697B681A637B6801225A617B6812
:10586C001B6903F00103002B05D07B681B6923F037
:10587C0001027B681A6100BF1437BD4680BC7047BB
:10588C00002C0140000400400008004080B487B0A8
:10589C0000AFF860B9607A60FB681B6A7B61FB68DB
:1058AC001B6A23F00102FB681A62FB689B693B616F
:1058BC003B6923F0F0033B617B681B013A6913439E
:1058CC003B617B6923F00A037B617A69BB681343F4
:1058DC007B61FB683A699A61FB687A691A6200BF5E
:1058EC001C37BD4680BC704780B487B000AFF860F1
:1058FC00B9607A60FB681B6A7B61FB681B6A23F0EA
:10590C001002FB681A62FB689B693B613B6923F4DC
:10591C0070433B617B681B033A6913433B617B69B2
:10592C0023F0A0037B61BB681B017A6913437B6185
:10593C00FB683A699A61FB687A691A6200BF1C3786
:10594C00BD4680BC704780B485B000AF78603960CC
:10595C007B689B68FB60FB6823F07003FB603A6814
:10596C00FB68134343F00703FB607B68FA689A609B
:10597C0000BF1437BD4680BC704780B487B000AF01
:10598C00F860B9607A603B60FB689B687B617B69FF
:10599C0023F47F437B613B681A027B681A43BB6824
:1059AC0013437A6913437B61FB687A699A6000BF81
:1059BC001C37BD4680BC704780B485B000AF7860A2
:1059CC0039607B6893F83C30012B01D1022346E00F
:1059DC007B68012283F83C207B68022283F83D20FF
:1059EC007B681B685B68FB607B681B689B68BB60A3
:1059FC00FB6823F07003FB603B681B68FA68134379
:105A0C00FB607B681B68FA685A607B681B68164AE7
:105A1C0093420ED07B681B68B3F1804F09D07B6832
:105A2C001B68124A934204D07B681B68104A93424D
:105A3C000CD1BB6823F08003BB603B685B68BA6821
:105A4C001343BB607B681B68BA689A607B68012251
:105A5C0083F83D207B68002283F83C200023184605
:105A6C001437BD4680BC7047002C01400004004038
:105A7C000008004080B483B000AF786000BF0C37E2
:105A8C00BD4680BC704780B483B000AF786000BF67
:105A9C000C37BD4680BC704780B582B000AF7860D3
:105AAC007B68002B01D1012342E07B6893F84130E5
:105ABC00DBB2002B06D17B68002283F8402078688B
:105ACC00FBF740FE7B68242283F841207B681B682F
